:0701E50005080019324B640C
:0901F6001201D2E4F50DF50E2210
:100138001201F612009ABF0105750D0180F5BF0284
:1001480005750D0280EDBF0305750D0380E5BF043D
:06015800E2750D0480DDDC
:03000B000200FCF4
:1000FC00C0E0C0F0C0D075D000C000C007758CFF48
:10010C00758AF7050EE50E75F0648485F00E74089B
:10011C00250DF8E6FFE50EC39F5004C2A08002D265
:0C012C00A0D007D000D0D0D0F0D0E0323E
:10019B00E4FDFCC3ED9FEC9E50110000000000003D
:0B01AB00000000000DBD00010C80E80A
:0101B6002226
:10015E00E4FDFCC3ED9FEC9E5015E4FBFA0BBB00D7
:0F016E00010AEB64704A70F50DBD00010C80E4CE
:01017D00225F
:04017E008E128F133B
:10018200900000C3E5829513E5839512500A7FE83B
:080192007E0312015EA380EB65
:01019A002242
:1001D2005389F0438901758CFF758AF7D2AFD2A992
:0301E200D28C229A
:0901EC00010F00011100011000D7
:1001B70020B1037F012220B0037F022220B2037FF8
:0B01C700032220B3037F04227F0022EC
:10009A00E4FEFF1201B7E50F146014146030146017
:1000AA00352403704AEF6047750F01F5108040054B
:1000BA0011E511C394144037E4F5111201B7E510A4
:1000CA00B50706750F02FE8026E4F50F802112019E
:1000DA00B7EF701B80160511E511C394144010E4A4
:1000EA00F5111201B7EF7004F50F8003750F03AF16
:0100FA0006FF
:0100FB0022E2
:0300000002000EED
:0C000E00787FE4F6D8FD758113020055E0
:10001A00020138E493A3F8E493A34003F68001F2C3
:10002A0008DFF48029E493A3F85407240CC8C333E7
:10003A00C4540F4420C8834004F456800146F6DFB6
:10004A00E4800B01020408102040809001E5E47E60
:10005A00019360BCA3FF543F30E509541FFEE493AB
:10006A00A360010ECF54C025E060A840B8E493A372
:10007A00FAE493A3F8E493A3C8C582C8CAC583CA9D
:10008A00F0A3C8C582C8CAC583CADFE9DEE780BE55
:0101F5000009
:00000001FF
