:0703250005080019324B64CA
:100289001203121202FA750D02E4F515F512D200E5
:0D029900F514F511F510F50FF50EC2012258
:1001A3001202078F13E51324FE602C1460331460CE
:1001B300462403704EE51270047F0180027F008F96
:1001C30012E5127002D200E512B40108750D02E4C3
:1001D300F514D2010202FAE5127028E50D2401801C
:1001E30008E512701EE50D2404FFE433FE7C007D58
:1001F3000512013D8D0D22E512B40107D200E4F58D
:0402030014D20122EE
:0100030022DA
:1002FA00E512B40103D38001C3B392A6E5127003D9
:08030A00D38001C3B392A722C6
:0B0336001202891201A312000380F8DC
:03000B0002000EE2
:10000E00C0E0C0F0C083C082C0D075D000C000C0B8
:10001E0001C002C003C004C005C006C007758CFF36
:10002E00758AA430013DE5112401F511E43510F572
:10003E0010E4350FF50FE4350EF50EE47F107E2734
:10004E00FDFCAB11AA10A90FA80EC31201927013DA
:10005E00F511F510F50FF50E0514E514B40504C2EF
:10006E0001C2000515E51575F0648485F0153000A4
:10007E00157408250DF8E6FFE515C39F5004C2A0C0
:10008E008006D2A08002D2A0D007D006D005D00420
:10009E00D003D002D001D000D0D0D082D083D0F007
:0300AE00D0E0326D
:1002C300E4FDFCC3ED9FEC9E501100000000000014
:0B02D300000000000DBD00010C80E8E1
:0102DE0022FD
:10026900E4FDFCC3ED9FEC9E5015E4FBFA0BBB00CB
:0F027900010AEB64704A70F50DBD00010C80E4C2
:010288002253
:0402A6008E198F1A04
:1002AA00900000C3E582951AE5839519500A7FE804
:0802BA007E03120269A380EB30
:0102C2002219
:100312005389F0438901758CFF758AA4D2AFD2A9A3
:03032200D28C2258
:09032C0001160001180001170080
:1002DF0020B1037F012220B0037F022220B2037FCF
:0B02EF00032220B3037F04227F0022C3
:10020700E4FEFF1202DFE516146014146030146078
:10021700352403704AEF6047751601F517804005CE
:1002270018E518C394144037E4F5181202DFE517F0
:10023700B50706751602FE8026E4F5168021120220
:10024700DFEF701B80160518E518C394144010E4FF
:10025700F5181202DFEF7004F5168003751603AF69
:010267000690
:010268002273
:030000000200B14A
:0C00B100787FE4F6D8FD7581200200F88D
:10013D00BC000BBE0029EF8DF084FFADF022E4CCA6
:10014D00F875F008EF2FFFEE33FEEC33FCEE9DEC6F
:10015D00984005FCEE9DFE0FD5F0E9E4CEFD22EDB5
:10016D00F8F5F0EE8420D21CFEADF075F008EF2FFF
:10017D00FFED33FD4007985006D5F0F222C398FDF0
:05018D000FD5F0EA228D
:10019200EB9FF5F0EA9E42F0E99D42F0E89C45F0C3
:0101A200223A
:1000BD00020336E493A3F8E493A34003F68001F220
:1000CD0008DFF48029E493A3F85407240CC8C33344
:1000DD00C4540F4420C8834004F456800146F6DF13
:1000ED00E4800B0102040810204080900325E47E7B
:1000FD00019360BCA3FF543F30E509541FFEE49308
:10010D00A360010ECF54C025E060A840B8E493A3CE
:10011D00FAE493A3F8E493A3C8C582C8CAC583CAF9
:10012D00F0A3C8C582C8CAC583CADFE9DEE780BEB1
:0103350000C7
:00000001FF
