:10020C001201818F15E51560F77FE87E031201E27C
:09021C00AD157F011200F980E725
:10022500E4FDFCC3ED9FEC9E500DE4FB0BBB72FCA3
:070235000DBD00010C80EC7F
:01023C00229F
:0A0249003F065B4F666D7D077F6F77
:0600F9008F088C098D0A3E
:1000FF00780B7C007D007BFF7A0279497E007F0AB6
:10010F001200D3E50814B40800505490012875F07C
:10011F0003A4C58325F0C583730201400201440285
:10012F00014802014C020150020158020160020114
:10013F0068D2A4800ED2A48012D2A48016D2A4803A
:10014F001AC2A4D2A3D2A28016C2A4D2A3C2A280E2
:10015F000EC2A4C2A3D2A28006C2A4C2A3C2A2741A
:10016F000B250AF8E6F5807F017E00120225E4F5E3
:01017F0080FF
:01018000225C
:0401E2008E088F09EB
:1001E600E4F50AF50BC3E50B9509E50A95085013E6
:1001F600B2A57F017E00120225050BE50B70E60510
:050206000A80E2C2A520
:01020B0022D0
:10018100E4F50820B1137F14FE12022530B1FD7F82
:10019100147E0012022575080120B0147F147E0020
:1001A10012022530B0FD7F147E001202257508026F
:1001B10020B2147F147E0012022530B2FD7F147E1E
:1001C1000012022575080320B3147F147E00120269
:1001D1002530B3FD7F147E00120225750804AF0897
:0101E10022FB
:0300000002023DBC
:0C023D00787FE4F6D8FD75811502020CF4
:10000300E709F608DFFA8046E709F208DFFA803EDF
:1000130088828C83E709F0A3DFFA8032E309F608CC
:10002300DFFA8078E309F208DFFA807088828C8334
:10003300E309F0A3DFFA806489828A83E0A3F608E8
:10004300DFFA805889828A83E0A3F208DFFA804CC2
:1000530080D280FA80C680D4806980F28033801099
:1000630080A680EA809A80A880DA80E280CA803302
:1000730089828A83ECFAE493A3C8C582C8CCC5837A
:10008300CCF0A3C8C582C8CCC583CCDFE9DEE7804A
:100093000D89828A83E493A3F608DFF9ECFAA9F0C9
:1000A300EDFB2289828A83ECFAE0A3C8C582C8CC1F
:1000B300C583CCF0A3C8C582C8CCC583CCDFEADE38
:1000C300E880DB89828A83E493A3F208DFF980CC9A
:1000D30088F0EF60010E4E60C388F0ED2402B40493
:1000E3000050B9F582EB2402B4040050AF2323453A
:0600F3008223900053730C
:00000001FF
