:0702690005080019324B6487
:0B027A00120256E4F50DF510F50E22FF
:1001510012009A8F0FE50F24FE601414601B240215
:10016100702CE50E70047F0180027F008F0E22E566
:100171000E701BE50D24018008E50E7011E50D24BC
:0F01810004FFE433FE7C007D051200FC8D0D228F
:1002400012027A120151E50E7006D2A6C2A780F3FF
:06025000C2A6D2A780ED5A
:03000B000201905F
:10019000C0E0C0F0C0D075D000C000C007758CFFB3
:1001A000758AF70510E51075F0648485F010740801
:1001B000250DF8E6FFE510C39F5004C2A08002D2CF
:0C01C000A0D007D000D0D0D0F0D0E032AA
:10020900E4FDFCC3ED9FEC9E5011000000000000CE
:0B021900000000000DBD00010C80E89B
:0102240022B7
:1001CC00E4FDFCC3ED9FEC9E5015E4FBFA0BBB0069
:0F01DC00010AEB64704A70F50DBD00010C80E460
:0101EB0022F1
:0401EC008E148F15C9
:1001F000900000C3E5829515E5839514500A7FE8C9
:080200007E031201CCA380EB88
:0102080022D3
:100256005389F0438901758CFF758AF7D2AFD2A90D
:03026600D28C2215
:090270000111000113000112004C
:1002250020B1037F012220B0037F022220B2037F89
:0B023500032220B3037F04227F00227D
:10009A00E4FEFF120225E5111460141460301460A6
:1000AA00352403704AEF6047751101F51280400547
:1000BA0013E513C394144037E4F513120225E5122D
:1000CA00B50706751102FE8026E4F5118021120299
:1000DA0025EF701B80160513E513C394144010E432
:1000EA00F513120225EF7004F5118003751103AFA1
:0100FA0006FF
:0100FB0022E2
:0300000002000EED
:0C000E00787FE4F6D8FD758115020055DE
:1000FC00BC000BBE0029EF8DF084FFADF022E4CCE8
:10010C00F875F008EF2FFFEE33FEEC33FCEE9DECB0
:10011C00984005FCEE9DFE0FD5F0E9E4CEFD22EDF6
:10012C00F8F5F0EE8420D21CFEADF075F008EF2F40
:10013C00FFED33FD4007985006D5F0F222C398FD31
:05014C000FD5F0EA22CE
:10001A00020240E493A3F8E493A34003F68001F2BA
:10002A0008DFF48029E493A3F85407240CC8C333E7
:10003A00C4540F4420C8834004F456800146F6DFB6
:10004A00E4800B0102040810204080900269E47EDB
:10005A00019360BCA3FF543F30E509541FFEE493AB
:10006A00A360010ECF54C025E060A840B8E493A372
:10007A00FAE493A3F8E493A3C8C582C8CAC583CA9D
:10008A00F0A3C8C582C8CAC583CADFE9DEE780BE55
:010279000084
:00000001FF
