:0700030005080019324B64EF
:06014200E4F50DF50E22AC
:03014D00C2A0222B
:0501480012014280FEDF
:03000B0002009A56
:10009A00C0E0C0F0C0D075D000C000C007758CFFAA
:1000AA00758AF7050EE50E75F0648485F00E7408FE
:1000BA00250DF8E6FFE50EC39F5004C2A08002D2C8
:0C00CA00A0D007D000D0D0D0F0D0E032A1
:10011300E4FDFCC3ED9FEC9E5011000000000000C5
:0B012300000000000DBD00010C80E892
:01012E0022AE
:1000D600E4FDFCC3ED9FEC9E5015E4FBFA0BBB0060
:0F00E600010AEB64704A70F50DBD00010C80E457
:0100F50022E8
:0400F6008E0F8F10CA
:1000FA00900000C3E5829510E583950F500A7FE8CA
:08010A007E031200D6A380EB76
:0101120022CA
:10012F005389F0438901758CFF758AF7D2AFD2A935
:03013F00D28C223D
:0300000002000EED
:0C000E00787FE4F6D8FD758110020055E3
:10001A00020148E493A3F8E493A34003F68001F2B3
:10002A0008DFF48029E493A3F85407240CC8C333E7
:10003A00C4540F4420C8834004F456800146F6DFB6
:10004A00E4800B0102040810204080900003E47E43
:10005A00019360BCA3FF543F30E509541FFEE493AB
:10006A00A360010ECF54C025E060A840B8E493A372
:10007A00FAE493A3F8E493A3C8C582C8CAC583CA9D
:10008A00F0A3C8C582C8CAC583CADFE9DEE780BE55
:01000A0000F5
:00000001FF
