:07026D0005080019324B6483
:0E027E0012025A120242E4F50DF510F50E229E
:1001510012009A8F0FE50F24FE601614601D240211
:10016100702EE50E70047F0180027F008F0E020267
:1001710042E50E701BE50D24018008E50E7011E5C6
:100181000D2404FFE433FE7C007D051200FC8D0D7F
:01019100224B
:10024200E50EB40103D38001C3B392A6E50E700399
:08025200D38001C3B392A7227F
:0800030012027E12015180FB84
:03000B000201925D
:10019200C0E0C0F0C0D075D000C000C007758CFFB1
:1001A200758AF70510E51075F0648485F0107408FF
:1001B200250DF8E6FFE510C39F5004C2A08002D2CD
:0C01C200A0D007D000D0D0D0F0D0E032A8
:10020B00E4FDFCC3ED9FEC9E5011000000000000CC
:0B021B00000000000DBD00010C80E899
:0102260022B5
:1001CE00E4FDFCC3ED9FEC9E5015E4FBFA0BBB0067
:0F01DE00010AEB64704A70F50DBD00010C80E45E
:0101ED0022EF
:0401EE008E148F15C7
:1001F200900000C3E5829515E5839514500A7FE8C7
:080202007E031201CEA380EB84
:01020A0022D1
:10025A005389F0438901758CFF758AF7D2AFD2A909
:03026A00D28C2211
:0902740001110001130001120048
:1002270020B1037F012220B0037F022220B2037F87
:0B023700032220B3037F04227F00227B
:10009A00E4FEFF120227E5111460141460301460A4
:1000AA00352403704AEF6047751101F51280400547
:1000BA0013E513C394144037E4F513120227E5122B
:1000CA00B50706751102FE8026E4F5118021120299
:1000DA0027EF701B80160513E513C394144010E430
:1000EA00F513120227EF7004F5118003751103AF9F
:0100FA0006FF
:0100FB0022E2
:0300000002000EED
:0C000E00787FE4F6D8FD758115020055DE
:1000FC00BC000BBE0029EF8DF084FFADF022E4CCE8
:10010C00F875F008EF2FFFEE33FEEC33FCEE9DECB0
:10011C00984005FCEE9DFE0FD5F0E9E4CEFD22EDF6
:10012C00F8F5F0EE8420D21CFEADF075F008EF2F40
:10013C00FFED33FD4007985006D5F0F222C398FD31
:05014C000FD5F0EA22CE
:10001A00020003E493A3F8E493A34003F68001F2F9
:10002A0008DFF48029E493A3F85407240CC8C333E7
:10003A00C4540F4420C8834004F456800146F6DFB6
:10004A00E4800B010204081020408090026DE47ED7
:10005A00019360BCA3FF543F30E509541FFEE493AB
:10006A00A360010ECF54C025E060A840B8E493A372
:10007A00FAE493A3F8E493A3C8C582C8CAC583CA9D
:10008A00F0A3C8C582C8CAC583CADFE9DEE780BE55
:01027D000080
:00000001FF
