:0704FE0005080019324B64F0
:1003AE001204DA1201D2750D02E4F519F512D2001B
:1003BE00F514F511F510F50FF50EC201F51AF51B32
:0903CE00F515F516F517F51822D6
:1002A2001203068F13E51324FE602C1460331460CE
:1002B200462403704EE51270047F0180027F008F96
:1002C20012E5127002D200E512B40108750D02E4C3
:1002D200F514D2010201D2E5127028E50D24018045
:1002E20008E512701EE50D2404FFE433FE7C007D58
:1002F2000512023C8D0D22E512B40107D200E4F58D
:0403020014D20122EE
:1000B100E512640160030201452000030201457F4E
:1000C100A41204AD8E1A8F1BD3E51B9400E51A947C
:1000D10000400EE51B9433E51A94035004750D049A
:1000E10022D3E51B9433E51A9403400EE51B949348
:1000F100E51A94065004750D0322D3E51B9493E58C
:100101001A9406400EE51B9499E51A94095004755A
:100111000D0222D3E51B9499E51A9409400EE51BC3
:1001210094CCE51A940C5004750D0122D3E51B946F
:10013100CCE51A940C400DE51B94FFE51A940F5081
:0501410003E4F50D22AE
:1001D200AE1AAF1B7C037DE812023C8F15AE1AAF3C
:1001E2001B7C037DE812023CAA04AB057D647C0003
:1001F200AF03AE0212023C8F167D647C00AF03AEE9
:100202000212023CAA04AB057D0A7C00AF03AE02D7
:1002120012023C8F177D0A7C00AF03AE0212023C31
:100222008D18E512B40103D38001C3B392A6E5127F
:0A0232007003D38001C3B392A7222A
:1003D700E4FBAD157F05120368E4FBAD167F06123B
:1003E7000368E4FBAD177F07120368E4FBAD187FD2
:0403F700080203688D
:1004ED001203AE1202A21200B11201D21203D78072
:0104FD00F20C
:03000B0002000EE2
:10000E00C0E0C0F0C083C082C0D075D000C000C0B8
:10001E0001C002C003C004C005C006C007758CFF36
:10002E00758AA430013DE5112401F511E43510F572
:10003E0010E4350FF50FE4350EF50EE47F107E2734
:10004E00FDFCAB11AA10A90FA80EC31202917013DA
:10005E00F511F510F50FF50E0514E514B41E04C2D6
:10006E0001C2000519E51975F0648485F019300098
:10007E00157408250DF8E6FFE519C39F5004C2A0BC
:10008E008006D2A08002D2A0D007D006D005D00420
:10009E00D003D002D001D000D0D0D082D083D0F007
:0300AE00D0E0326D
:10047600E4FDFCC3ED9FEC9E50110000000000005F
:0B048600000000000DBD00010C80E82C
:010491002248
:1003FB00E4FDFCC3ED9FEC9E5015E4FBFA0BBB0038
:0F040B00010AEB64704A70F50DBD00010C80E42E
:01041A0022BF
:040459008E218F223F
:10045D00900000C3E5829522E5839521500A7FE83F
:08046D007E031203FBA380EBE8
:010475002264
:10041B00C2B600E4FEEFC4131313540124FF92B4CD
:0E042B00EF25E0FFC2B600D2B6000EBE08E715
:0104390022A0
:10043A00E4FFFEC2B600FDEF25E0FFEE33FED2B6C2
:0E044A0000C2B600A2B7E43342070DBD0CE9B4
:010458002281
:1004AD00E4FDFCC2B6C2B512041B7F06DFFED2B658
:0904BD0000C2B60012043AD2B5E7
:0104C6002213
:09050500011C00011E00011D0093
:1004920020B1037F012220B0037F022220B2037F1A
:0B04A200032220B3037F04227F00220E
:10030600E4FEFF120492E51C1460141460301460BD
:10031600352403704AEF6047751C01F51D804005C2
:100326001EE51EC394144037E4F51E120492E51D23
:10033600B50706751C02FE8026E4F51C8021120412
:1003460092EF701B8016051EE51EC394144010E440
:10035600F51E120492EF7004F51C8003751C03AFA2
:010366000690
:010367002273
:1004C7003F065B4F666D7D077F6F000706050403D8
:0304D7000201001F
:10036800EFC39401403FEFD394085039EF14FF9046
:1003780004D293FE1313543F1392A4EEC3131392A3
:10038800A3EF931392A2EB600BED9004C793448004
:10039800F5808007ED9004C793F5807F017E0012F9
:0503A80003FBE4F580F9
:0103AD00222D
:1004DA005389F0438901758CFF758AA4D2AFD2A9DA
:0304EA00D28C228F
:03000000020146B4
:0C014600787FE4F6D8FD75812202018D5F
:10023C00BC000BBE0029EF8DF084FFADF022E4CCA6
:10024C00F875F008EF2FFFEE33FEEC33FCEE9DEC6F
:10025C00984005FCEE9DFE0FD5F0E9E4CEFD22EDB5
:10026C00F8F5F0EE8420D21CFEADF075F008EF2FFF
:10027C00FFED33FD4007985006D5F0F222C398FDF0
:05028C000FD5F0EA228D
:10029100EB9FF5F0EA9E42F0E99D42F0E89C45F0C3
:0102A100223A
:100152000204EDE493A3F8E493A34003F68001F2D2
:1001620008DFF48029E493A3F85407240CC8C333AE
:10017200C4540F4420C8834004F456800146F6DF7D
:10018200E4800B01020408102040809004FEE47E0B
:10019200019360BCA3FF543F30E509541FFEE49372
:1001A200A360010ECF54C025E060A840B8E493A339
:1001B200FAE493A3F8E493A3C8C582C8CAC583CA64
:1001C200F0A3C8C582C8CAC583CADFE9DEE780BE1C
:01050E0000EC
:00000001FF
