:1003E10012051C12014C750E02E4F51BF50F751078
:1003F1001975113275124B751364F514750801F5F1
:100401001CF50DF50CF50BF50AF509F515F516F5C5
:0804110017F518F519F51A2280
:100265001203338F1DE51D24FE602E1460351460C6
:100275004824037052E51470047F0180027F008FCB
:1002850014E5147003750801E514B40109750E022F
:10029500E4F51C75090102014CE514702AE50E24EC
:1002A500018008E5147020E50E2404FFE433FE7C8C
:1002B500007D051202CD8D0E22E514B401097508E5
:0802C50001E4F51C750901229A
:1000B600E5146401600302014BE508700302014B7D
:1000C6007FA41204EF8E158F16D3E5169400E5155E
:1000D6009400400EE5169433E51594035004750E0E
:1000E6000422D3E5169433E5159403400EE51694E1
:1000F60093E51594065004750E0322D3E5169493E2
:10010600E5159406400EE5169499E51594095004F4
:10011600750E0222D3E5169499E5159409400EE56D
:100126001694CCE515940C5004750E0122D3E516F1
:1001360094CCE515940C400DE51694FFE515940F47
:060146005003E4F50E2257
:10014C00AE15AF167C037DE81202CD8F17AE15AF3E
:10015C00167C037DE81202CD7E007F64CFCDCFCE1E
:10016C00CCCE1202CD8F18AE15AF167C037DE812E3
:10017C0002CD7E007F64CFCDCFCECCCE1202CD7E11
:10018C00007F0ACFCDCFCECCCE1202CD8F19AE15BB
:10019C00AF167C037DE81202CD7E007F64CFCDCFFD
:1001AC00CECCCE1202CD7E007F0ACFCDCFCECCCE20
:1001BC001202CD8D1AE514B40103D38001C3B3929E
:0D01CC00A6E5147003D38001C3B392A722EF
:10041900E4FBAD177F05120395E4FBAD187F0612C7
:100429000395E4FBAD197F07120395E4FBAD1A7F31
:04043900080203951D
:10052F001203E11202651200B612014C1204198077
:01053F00F2C9
:03000B0002000EE2
:10000E00C0E0C0F0C083C082C0D075D000C000C0B8
:10001E0001C002C003C004C005C006C007758CFF36
:10002E00758AA4E509603FE50D2401F50DE4350C54
:10003E00F50CE4350BF50BE4350AF50AE47F107E7A
:10004E0027FDFCAB0DAA0CA90BA80AC31203227044
:10005E0015F50DF50CF50BF50A051CE51CB41E0681
:10006E00750900750800051BE51B75F0648485F0A5
:10007E001BE508B40115740F250EF8E6FFE51BC34A
:10008E009F5004C2A08006D2A08002D2A0D007D07A
:10009E0006D005D004D003D002D001D000D0D0D0ED
:0800AE0082D083D0F0D0E032D3
:1004B800E4FDFCC3ED9FEC9E50110000000000001D
:0B04C800000000000DBD00010C80E8EA
:0104D3002206
:10043D00E4FDFCC3ED9FEC9E5015E4FBFA0BBB00F5
:0F044D00010AEB64704A70F50DBD00010C80E4EC
:01045C00227D
:04049B008E218F22FD
:10049F00900000C3E5829522E5839521500A7FE8FD
:0804AF007E0312043DA380EB63
:0104B7002222
:10045D00C2B600E4FEEFC4131313540124FF92B48B
:0E046D00EF25E0FFC2B600D2B6000EBE08E7D3
:01047B00225E
:10047C00E4FFFEC2B600FDEF25E0FFEE33FED2B680
:0E048C0000C2B600A2B7E43342070DBD0CE972
:01049A00223F
:1004EF00E4FDFCC2B6C2B512045D7F06DFFED2B6D4
:0904FF0000C2B60012047CD2B563
:0105080022D0
:09054000011E00012000011F0052
:1004D40020B1037F012220B0037F022220B2037FD8
:0B04E400032220B3037F04227F0022CC
:10033300E4FEFF1204D4E51E14601414603014604C
:10034300352403704AEF6047751E01F51F80400591
:1003530020E520C394144037E4F5201204D4E51FAC
:10036300B50706751E02FE8026E4F51E80211204E1
:10037300D4EF701B80160520E520C394144010E4CD
:10038300F5201204D4EF7004F51E8003751E03AF2D
:010393000663
:010394002246
:100509003F065B4F666D7D077F6F00070605040395
:03051900020100DC
:10039500EFC394014045EFD39408503FEDD3940A41
:1003A5005039EF14FF90051493FE1313543F139225
:1003B500A4EEC3131392A3EF931392A2EB600BED7C
:1003C500900509934480F5808007ED90050993F524
:0B03D500807F017E0012043DE4F580F3
:0103E00022FA
:10051C005389F0438901758CFF758AA4D2AFD2A997
:03052C00D28C224C
:030000000201D921
:0C01D900787FE4F6D8FD75812202022038
:1002CD00BC000BBE0029EF8DF084FFADF022E4CC15
:1002DD00F875F008EF2FFFEE33FEEC33FCEE9DECDE
:1002ED00984005FCEE9DFE0FD5F0E9E4CEFD22ED24
:1002FD00F8F5F0EE8420D21CFEADF075F008EF2F6E
:10030D00FFED33FD4007985006D5F0F222C398FD5E
:05031D000FD5F0EA22FB
:10032200EB9FF5F0EA9E42F0E99D42F0E89C45F031
:0103320022A8
:1001E50002052FE493A3F8E493A34003F68001F2FC
:1001F50008DFF48029E493A3F85407240CC8C3331B
:10020500C4540F4420C8834004F456800146F6DFE9
:10021500E4800B0102040810204080900540E47E34
:10022500019360BCA3FF543F30E509541FFEE493DE
:10023500A360010ECF54C025E060A840B8E493A3A5
:10024500FAE493A3F8E493A3C8C582C8CAC583CAD0
:10025500F0A3C8C582C8CAC583CADFE9DEE780BE88
:0105490000B1
:00000001FF
